{
  "_format": "hh-sol-artifact-1",
  "contractName": "Raffle",
  "sourceName": "contracts/Raffle.sol",
  "abi": [
    {
      "inputs": [
        {
          "internalType": "address",
          "name": "vrfCoordinatorV2",
          "type": "address"
        },
        {
          "internalType": "uint64",
          "name": "subscriptionId",
          "type": "uint64"
        },
        {
          "internalType": "bytes32",
          "name": "gasLane",
          "type": "bytes32"
        },
        {
          "internalType": "uint256",
          "name": "interval",
          "type": "uint256"
        },
        {
          "internalType": "uint256",
          "name": "entranceFee",
          "type": "uint256"
        },
        {
          "internalType": "uint32",
          "name": "callbackGasLimit",
          "type": "uint32"
        }
      ],
      "stateMutability": "nonpayable",
      "type": "constructor"
    },
    {
      "inputs": [
        {
          "internalType": "address",
          "name": "have",
          "type": "address"
        },
        {
          "internalType": "address",
          "name": "want",
          "type": "address"
        }
      ],
      "name": "OnlyCoordinatorCanFulfill",
      "type": "error"
    },
    {
      "inputs": [],
      "name": "Raffle__RaffleNotOpen",
      "type": "error"
    },
    {
      "inputs": [],
      "name": "Raffle__SendMoreToEnterRaffle",
      "type": "error"
    },
    {
      "inputs": [],
      "name": "Raffle__TransferFailed",
      "type": "error"
    },
    {
      "inputs": [
        {
          "internalType": "uint256",
          "name": "currentBalance",
          "type": "uint256"
        },
        {
          "internalType": "uint256",
          "name": "numPlayers",
          "type": "uint256"
        },
        {
          "internalType": "uint256",
          "name": "raffleState",
          "type": "uint256"
        }
      ],
      "name": "Raffle__UpkeepNotNeeded",
      "type": "error"
    },
    {
      "anonymous": false,
      "inputs": [
        {
          "indexed": true,
          "internalType": "address",
          "name": "player",
          "type": "address"
        }
      ],
      "name": "RaffleEnter",
      "type": "event"
    },
    {
      "anonymous": false,
      "inputs": [
        {
          "indexed": true,
          "internalType": "uint256",
          "name": "requestId",
          "type": "uint256"
        }
      ],
      "name": "RequestedRaffleWinner",
      "type": "event"
    },
    {
      "anonymous": false,
      "inputs": [
        {
          "indexed": true,
          "internalType": "address",
          "name": "player",
          "type": "address"
        }
      ],
      "name": "WinnerPicked",
      "type": "event"
    },
    {
      "anonymous": false,
      "inputs": [
        {
          "indexed": true,
          "internalType": "bool",
          "name": "value",
          "type": "bool"
        }
      ],
      "name": "trueF",
      "type": "event"
    },
    {
      "inputs": [
        {
          "internalType": "bytes",
          "name": "",
          "type": "bytes"
        }
      ],
      "name": "checkUpkeep",
      "outputs": [
        {
          "internalType": "bool",
          "name": "upkeepNeeded",
          "type": "bool"
        },
        {
          "internalType": "bytes",
          "name": "",
          "type": "bytes"
        }
      ],
      "stateMutability": "nonpayable",
      "type": "function"
    },
    {
      "inputs": [],
      "name": "enterRaffle",
      "outputs": [],
      "stateMutability": "payable",
      "type": "function"
    },
    {
      "inputs": [],
      "name": "getEntranceFee",
      "outputs": [
        {
          "internalType": "uint256",
          "name": "",
          "type": "uint256"
        }
      ],
      "stateMutability": "view",
      "type": "function"
    },
    {
      "inputs": [],
      "name": "getInterval",
      "outputs": [
        {
          "internalType": "uint256",
          "name": "",
          "type": "uint256"
        }
      ],
      "stateMutability": "view",
      "type": "function"
    },
    {
      "inputs": [],
      "name": "getLastTimeStamp",
      "outputs": [
        {
          "internalType": "uint256",
          "name": "",
          "type": "uint256"
        }
      ],
      "stateMutability": "view",
      "type": "function"
    },
    {
      "inputs": [],
      "name": "getNumWords",
      "outputs": [
        {
          "internalType": "uint256",
          "name": "",
          "type": "uint256"
        }
      ],
      "stateMutability": "pure",
      "type": "function"
    },
    {
      "inputs": [],
      "name": "getNumberOfPlayers",
      "outputs": [
        {
          "internalType": "uint256",
          "name": "",
          "type": "uint256"
        }
      ],
      "stateMutability": "view",
      "type": "function"
    },
    {
      "inputs": [
        {
          "internalType": "uint256",
          "name": "index",
          "type": "uint256"
        }
      ],
      "name": "getPlayer",
      "outputs": [
        {
          "internalType": "address",
          "name": "",
          "type": "address"
        }
      ],
      "stateMutability": "view",
      "type": "function"
    },
    {
      "inputs": [],
      "name": "getRaffleState",
      "outputs": [
        {
          "internalType": "enum Raffle.RaffleState",
          "name": "",
          "type": "uint8"
        }
      ],
      "stateMutability": "view",
      "type": "function"
    },
    {
      "inputs": [],
      "name": "getRecentWinner",
      "outputs": [
        {
          "internalType": "address",
          "name": "",
          "type": "address"
        }
      ],
      "stateMutability": "view",
      "type": "function"
    },
    {
      "inputs": [],
      "name": "getRequestConfirmations",
      "outputs": [
        {
          "internalType": "uint256",
          "name": "",
          "type": "uint256"
        }
      ],
      "stateMutability": "pure",
      "type": "function"
    },
    {
      "inputs": [
        {
          "internalType": "bytes",
          "name": "",
          "type": "bytes"
        }
      ],
      "name": "performUpkeep",
      "outputs": [],
      "stateMutability": "nonpayable",
      "type": "function"
    },
    {
      "inputs": [
        {
          "internalType": "uint256",
          "name": "requestId",
          "type": "uint256"
        },
        {
          "internalType": "uint256[]",
          "name": "randomWords",
          "type": "uint256[]"
        }
      ],
      "name": "rawFulfillRandomWords",
      "outputs": [],
      "stateMutability": "nonpayable",
      "type": "function"
    }
  ],
  "bytecode": "0x6101606040523480156200001257600080fd5b50604051620018fe380380620018fe833981810160405281019062000038919062000294565b858073ffffffffffffffffffffffffffffffffffffffff1660808173ffffffffffffffffffffffffffffffffffffffff1681525050508573ffffffffffffffffffffffffffffffffffffffff1660a08173ffffffffffffffffffffffffffffffffffffffff16815250508360e081815250508261012081815250508467ffffffffffffffff1660c08167ffffffffffffffff16815250508161014081815250506000600360006101000a81548160ff0219169083600181111562000101576200010062000330565b5b0217905550426000819055508063ffffffff166101008163ffffffff16815250505050505050506200035f565b600080fd5b600073ffffffffffffffffffffffffffffffffffffffff82169050919050565b6000620001608262000133565b9050919050565b620001728162000153565b81146200017e57600080fd5b50565b600081519050620001928162000167565b92915050565b600067ffffffffffffffff82169050919050565b620001b78162000198565b8114620001c357600080fd5b50565b600081519050620001d781620001ac565b92915050565b6000819050919050565b620001f281620001dd565b8114620001fe57600080fd5b50565b6000815190506200021281620001e7565b92915050565b6000819050919050565b6200022d8162000218565b81146200023957600080fd5b50565b6000815190506200024d8162000222565b92915050565b600063ffffffff82169050919050565b6200026e8162000253565b81146200027a57600080fd5b50565b6000815190506200028e8162000263565b92915050565b60008060008060008060c08789031215620002b457620002b36200012e565b5b6000620002c489828a0162000181565b9650506020620002d789828a01620001c6565b9550506040620002ea89828a0162000201565b9450506060620002fd89828a016200023c565b93505060806200031089828a016200023c565b92505060a06200032389828a016200027d565b9150509295509295509295565b7f4e487b7100000000000000000000000000000000000000000000000000000000600052602160045260246000fd5b60805160a05160c05160e05161010051610120516101405161152f620003cf600039600081816102fa01526103f701526000818161081e01526108c7015260006106dc01526000610698015260006106b90152600061065c015260008181610337015261038b015261152f6000f3fe6080604052600436106100c25760003560e01c806353a2c19a1161007f57806391ad27b41161005957806391ad27b414610238578063c1c244e814610263578063e55ae4e81461028e578063fd6673f5146102cb576100c2565b806353a2c19a146101a45780635f1b0fd8146101cf5780636e04ff0d146101fa576100c2565b806309bc33a7146100c7578063115cbaf5146100f25780631fe543e31461011d5780632cfcc539146101465780634585e33b14610150578063473f1ddc14610179575b600080fd5b3480156100d357600080fd5b506100dc6102f6565b6040516100e99190610c3c565b60405180910390f35b3480156100fe57600080fd5b5061010761031e565b6040516101149190610cce565b60405180910390f35b34801561012957600080fd5b50610144600480360381019061013f9190610e82565b610335565b005b61014e6103f5565b005b34801561015c57600080fd5b5061017760048036038101906101729190610f39565b610564565b005b34801561018557600080fd5b5061018e610795565b60405161019b9190610fc7565b60405180910390f35b3480156101b057600080fd5b506101b96107bf565b6040516101c69190610c3c565b60405180910390f35b3480156101db57600080fd5b506101e46107ce565b6040516101f19190610c3c565b60405180910390f35b34801561020657600080fd5b50610221600480360381019061021c9190611097565b6107db565b60405161022f92919061117a565b60405180910390f35b34801561024457600080fd5b5061024d6108c3565b60405161025a9190610c3c565b60405180910390f35b34801561026f57600080fd5b506102786108eb565b6040516102859190610c3c565b60405180910390f35b34801561029a57600080fd5b506102b560048036038101906102b091906111aa565b6108f4565b6040516102c29190610fc7565b60405180910390f35b3480156102d757600080fd5b506102e061093c565b6040516102ed9190610c3c565b60405180910390f35b60007f0000000000000000000000000000000000000000000000000000000000000000905090565b6000600360009054906101000a900460ff16905090565b7f000000000000000000000000000000000000000000000000000000000000000073ffffffffffffffffffffffffffffffffffffffff163373ffffffffffffffffffffffffffffffffffffffff16146103e757337f00000000000000000000000000000000000000000000000000000000000000006040517f1cf993f40000000000000000000000000000000000000000000000000000000081526004016103de9291906111d7565b60405180910390fd5b6103f18282610949565b5050565b7f000000000000000000000000000000000000000000000000000000000000000034101561044f576040517f3038c00a00000000000000000000000000000000000000000000000000000000815260040160405180910390fd5b6000600181111561046357610462610c57565b5b600360009054906101000a900460ff16600181111561048557610484610c57565b5b146104bc576040517fd24a271400000000000000000000000000000000000000000000000000000000815260040160405180910390fd5b6002339080600181540180825580915050600190039060005260206000200160009091909190916101000a81548173ffffffffffffffffffffffffffffffffffffffff021916908373ffffffffffffffffffffffffffffffffffffffff1602179055503373ffffffffffffffffffffffffffffffffffffffff167f0805e1d667bddb8a95f0f09880cf94f403fb596ce79928d9f29b74203ba284d460405160405180910390a2565b600061057e604051806020016040528060008152506107db565b509050806105c1576040517f08c379a00000000000000000000000000000000000000000000000000000000081526004016105b89061125d565b60405180910390fd5b8061062d5747600280549050600360009054906101000a900460ff1660018111156105ef576105ee610c57565b5b6040517f584327aa0000000000000000000000000000000000000000000000000000000081526004016106249392919061127d565b60405180910390fd5b6001600360006101000a81548160ff0219169083600181111561065357610652610c57565b5b021790555060007f000000000000000000000000000000000000000000000000000000000000000073ffffffffffffffffffffffffffffffffffffffff16635d3b1d307f00000000000000000000000000000000000000000000000000000000000000007f000000000000000000000000000000000000000000000000000000000000000060037f000000000000000000000000000000000000000000000000000000000000000060016040518663ffffffff1660e01b815260040161071d95949392919061132c565b6020604051808303816000875af115801561073c573d6000803e3d6000fd5b505050506040513d601f19601f820116820180604052508101906107609190611394565b9050807fcd6e45c8998311cab7e9d4385596cac867e20a0587194b954fa3a731c93ce78b60405160405180910390a250505050565b6000600160009054906101000a900473ffffffffffffffffffffffffffffffffffffffff16905090565b6000600163ffffffff16905090565b6000600361ffff16905090565b600060606000600360009054906101000a900460ff16600181111561080357610802610c57565b5b6000600181111561081757610816610c57565b5b14905060007f00000000000000000000000000000000000000000000000000000000000000006000544261084b91906113f0565b1190506000806002805490501190506000804711905082801561086b5750835b80156108745750805b801561087d5750815b9550856040518060400160405280600381526020017f30783000000000000000000000000000000000000000000000000000000000008152509550955050505050915091565b60007f0000000000000000000000000000000000000000000000000000000000000000905090565b60008054905090565b60006002828154811061090a57610909611424565b5b9060005260206000200160009054906101000a900473ffffffffffffffffffffffffffffffffffffffff169050919050565b6000600280549050905090565b60006002805490508260008151811061096557610964611424565b5b60200260200101516109779190611482565b905060006002828154811061098f5761098e611424565b5b9060005260206000200160009054906101000a900473ffffffffffffffffffffffffffffffffffffffff16905080600160006101000a81548173ffffffffffffffffffffffffffffffffffffffff021916908373ffffffffffffffffffffffffffffffffffffffff160217905550600067ffffffffffffffff811115610a1857610a17610d3f565b5b604051908082528060200260200182016040528015610a465781602001602082028036833780820191505090505b5060029080519060200190610a5c929190610b7c565b506000600360006101000a81548160ff02191690836001811115610a8357610a82610c57565b5b02179055504260008190555060008173ffffffffffffffffffffffffffffffffffffffff1647604051610ab5906114e4565b60006040518083038185875af1925050503d8060008114610af2576040519150601f19603f3d011682016040523d82523d6000602084013e610af7565b606091505b5050905080610b32576040517fa1d04b3900000000000000000000000000000000000000000000000000000000815260040160405180910390fd5b8173ffffffffffffffffffffffffffffffffffffffff167f5b690ec4a06fe979403046eaeea5b3ce38524683c3001f662c8b5a829632f7df60405160405180910390a25050505050565b828054828255906000526020600020908101928215610bf5579160200282015b82811115610bf45782518260006101000a81548173ffffffffffffffffffffffffffffffffffffffff021916908373ffffffffffffffffffffffffffffffffffffffff16021790555091602001919060010190610b9c565b5b509050610c029190610c06565b5090565b5b80821115610c1f576000816000905550600101610c07565b5090565b6000819050919050565b610c3681610c23565b82525050565b6000602082019050610c516000830184610c2d565b92915050565b7f4e487b7100000000000000000000000000000000000000000000000000000000600052602160045260246000fd5b60028110610c9757610c96610c57565b5b50565b6000819050610ca882610c86565b919050565b6000610cb882610c9a565b9050919050565b610cc881610cad565b82525050565b6000602082019050610ce36000830184610cbf565b92915050565b6000604051905090565b600080fd5b600080fd5b610d0681610c23565b8114610d1157600080fd5b50565b600081359050610d2381610cfd565b92915050565b600080fd5b6000601f19601f8301169050919050565b7f4e487b7100000000000000000000000000000000000000000000000000000000600052604160045260246000fd5b610d7782610d2e565b810181811067ffffffffffffffff82111715610d9657610d95610d3f565b5b80604052505050565b6000610da9610ce9565b9050610db58282610d6e565b919050565b600067ffffffffffffffff821115610dd557610dd4610d3f565b5b602082029050602081019050919050565b600080fd5b6000610dfe610df984610dba565b610d9f565b90508083825260208201905060208402830185811115610e2157610e20610de6565b5b835b81811015610e4a5780610e368882610d14565b845260208401935050602081019050610e23565b5050509392505050565b600082601f830112610e6957610e68610d29565b5b8135610e79848260208601610deb565b91505092915050565b60008060408385031215610e9957610e98610cf3565b5b6000610ea785828601610d14565b925050602083013567ffffffffffffffff811115610ec857610ec7610cf8565b5b610ed485828601610e54565b9150509250929050565b600080fd5b60008083601f840112610ef957610ef8610d29565b5b8235905067ffffffffffffffff811115610f1657610f15610ede565b5b602083019150836001820283011115610f3257610f31610de6565b5b9250929050565b60008060208385031215610f5057610f4f610cf3565b5b600083013567ffffffffffffffff811115610f6e57610f6d610cf8565b5b610f7a85828601610ee3565b92509250509250929050565b600073ffffffffffffffffffffffffffffffffffffffff82169050919050565b6000610fb182610f86565b9050919050565b610fc181610fa6565b82525050565b6000602082019050610fdc6000830184610fb8565b92915050565b600080fd5b600067ffffffffffffffff82111561100257611001610d3f565b5b61100b82610d2e565b9050602081019050919050565b82818337600083830152505050565b600061103a61103584610fe7565b610d9f565b90508281526020810184848401111561105657611055610fe2565b5b611061848285611018565b509392505050565b600082601f83011261107e5761107d610d29565b5b813561108e848260208601611027565b91505092915050565b6000602082840312156110ad576110ac610cf3565b5b600082013567ffffffffffffffff8111156110cb576110ca610cf8565b5b6110d784828501611069565b91505092915050565b60008115159050919050565b6110f5816110e0565b82525050565b600081519050919050565b600082825260208201905092915050565b60005b8381101561113557808201518184015260208101905061111a565b60008484015250505050565b600061114c826110fb565b6111568185611106565b9350611166818560208601611117565b61116f81610d2e565b840191505092915050565b600060408201905061118f60008301856110ec565b81810360208301526111a18184611141565b90509392505050565b6000602082840312156111c0576111bf610cf3565b5b60006111ce84828501610d14565b91505092915050565b60006040820190506111ec6000830185610fb8565b6111f96020830184610fb8565b9392505050565b600082825260208201905092915050565b7f55706b656570206e6f74206e6565646564000000000000000000000000000000600082015250565b6000611247601183611200565b915061125282611211565b602082019050919050565b600060208201905081810360008301526112768161123a565b9050919050565b60006060820190506112926000830186610c2d565b61129f6020830185610c2d565b6112ac6040830184610c2d565b949350505050565b6000819050919050565b6112c7816112b4565b82525050565b600067ffffffffffffffff82169050919050565b6112ea816112cd565b82525050565b600061ffff82169050919050565b611307816112f0565b82525050565b600063ffffffff82169050919050565b6113268161130d565b82525050565b600060a08201905061134160008301886112be565b61134e60208301876112e1565b61135b60408301866112fe565b611368606083018561131d565b611375608083018461131d565b9695505050505050565b60008151905061138e81610cfd565b92915050565b6000602082840312156113aa576113a9610cf3565b5b60006113b88482850161137f565b91505092915050565b7f4e487b7100000000000000000000000000000000000000000000000000000000600052601160045260246000fd5b60006113fb82610c23565b915061140683610c23565b925082820390508181111561141e5761141d6113c1565b5b92915050565b7f4e487b7100000000000000000000000000000000000000000000000000000000600052603260045260246000fd5b7f4e487b7100000000000000000000000000000000000000000000000000000000600052601260045260246000fd5b600061148d82610c23565b915061149883610c23565b9250826114a8576114a7611453565b5b828206905092915050565b600081905092915050565b50565b60006114ce6000836114b3565b91506114d9826114be565b600082019050919050565b60006114ef826114c1565b915081905091905056fea264697066735822122011009b4ba504a6a53e2c538acc826098c3be6a479d4f185ce6a065722645b87164736f6c63430008120033",
  "linkReferences": {},
  "deployedLinkReferences": {}
}